:100000000C9434000C9451000C9451000C94510049
:100010000C9451000C9451000C9451000C9451001C
:100020000C9451000C9451000C9451000C9451000C
:100030000C9451000C9451000C9451000C945100FC
:100040000C9451000C9451000C946F040C945100CA
:100050000C9451000C9451000C9451000C945100DC
:100060000C9451000C94510011241FBECFEFD8E026
:10007000DEBFCDBF12E0A0E0B1E0E0E5F5E102C0F7
:1000800005900D92AA35B107D9F712E0AAE5B2E0C2
:1000900001C01D92A53CB107E1F70E94B1020C948A
:1000A000A60A0C940000AF92BF92DF92EF92FF92EB
:1000B0000F931F93CF93DF938B017A01AFE9BFE0DA
:1000C0001197F1F700C000005F9AEFE9FFE0319768
:1000D000F1F700C000005F98AFE9BFE01197F1F7BA
:1000E00000C00000FC01E65CFD4FA080BB24F501D0
:1000F00020A1FC01EE0FFF1FE25CFD4F81E090E0CC
:10010000008002C0880F991F0A94E2F7D82E8095CC
:100110002823D50190962C93EFE9FFE03197F1F772
:1001200000C00000862F0E94E9068FE99FE001973A
:10013000F1F700C00000F801EE0FFF1FE65EFD4F73
:10014000808191810097D1F0E0E0F0E0C0E0D0E064
:10015000C801880F991F8C01065E1D4FEE0FFF1F0F
:10016000EE0DFF1D80810E94E9062196FE01D80157
:100170008D919C911197C817D90780F3EFE9FFE0A3
:100180003197F1F700C00000D50190968C919097BF
:10019000D82A9096DC929097EFE9FFE03197F1F73B
:1001A00000C00000289A8FE99FE00197F1F700C096
:1001B00000002898AFE9BFE01197F1F700C00000F8
:1001C000EFE9FFE03197F1F700C00000DF91CF9138
:1001D0001F910F91FF90EF90DF90BF90AF90089527
:1001E0004F925F927F928F929F92AF92BF92CF92E7
:1001F000DF92EF92FF920F931F93CF93DF93EC0167
:100200008B016A018FE99FE00197F1F700C00000C0
:100210004115510551F1ADB7BEB718970FB6F89417
:10022000BEBF0FBEADBFEDB7FEB731960F2EFAE5DC
:10023000EF2EF2E0FF2EF02D1296FC92EE92119727
:1002400080E091E093838283D583C4837783668340
:100250000E94CF07EDB7FEB738960FB6F894FEBFF1
:100260000FBEEDBFC7010E9414075F9A8FE99FE0A0
:100270000197F1F700C000005F98AFE9BFE0119768
:10028000F1F700C00000FE01E65CFD4F808099247C
:10029000F40120A1FE01EE0FFF1FE25CFD4F81E0A3
:1002A00090E0008002C0880F991F0A94E2F7782E30
:1002B00080952823D40190962C93EFE9FFE03197A5
:1002C000F1F700C00000802F80580E94E9068FE9F6
:1002D0009FE00197F1F700C00000F801EE0FFF1F4B
:1002E000E65EFD4F80819181009709F44BC0C0E02C
:1002F000D0E00F2EF4EBEF2EF2E0FF2EF02D0F2EBC
:10030000FAE5AF2EF2E0BF2EF02D0F2EFBE24F2EBE
:10031000F1E05F2EF02D8F0180E00E94E906282F8A
:1003200030E0CE01880F991F8E0D9F1DDC011196C4
:100330003C932E93C114D104E9F000D000D000D03A
:10034000EDB7FEB73196ADB7BEB71296BC92AE927E
:10035000119753824282358324830E94CF07EDB7E1
:10036000FEB736960FB6F894FEBF0FBEEDBFC501BF
:100370000E9414072196D8018D919C911197C8175E
:10038000D90750F2EFE9FFE03197F1F700C0000024
:10039000D40190968C919097782A90967C92909721
:1003A000C114D10451F08AE090E090935B028093F5
:1003B0005A028AE592E00E941407EFE9FFE03197C4
:1003C000F1F700C00000DF91CF911F910F91FF90D6
:1003D000EF90DF90CF90BF90AF909F908F907F90E5
:1003E0005F904F900895CF92DF92EF92FF920F931C
:1003F0001F93CF93DF938FE99FE00197F1F700C040
:100400000000A6E4B2E0CAE4D2E04AE352E02EE300
:1004100032E0EE24FF246894E2F8EA0EFB1E01E0CD
:1004200010E0ED91F0E060A188812296680102C0A1
:10043000CC0CDD1C8A95E2F7C601862B80A3FA015D
:10044000C190AF01DD24F60160A1F90180812E5F2A
:100450003F4FF80102C0EE0FFF1F8A95E2F7CF0170
:10046000862BF60180A3AE15BF05D9F6209A2898F1
:10047000579A5F9A8FE99FE00197F1F700C000005B
:100480005F98EFE9FFE03197F1F700C00000219A93
:100490008FE99FE00197F1F700C0000085B115B822
:1004A000EFE9FFE03197F1F700C00000299A8FE9EA
:1004B0009FE00197F1F700C0000085B115B8EFE9A2
:1004C000FFE03197F1F700C0000080E090E0C0E06D
:1004D000D0E002E012E062E070E0A8010E94530068
:1004E0008FE99FE00197F1F700C000002196CE014F
:1004F000C430D10581F700E010E0C0E0D0E00F2E5D
:10050000F2E1EF2EF2E0FF2EF02D0F2EFAE0CF2ECB
:10051000F2E0DF2EF02DC80160E070E0A7010E943C
:100520005300EFE9FFE03197F1F700C00000C80188
:1005300061E070E0A6010E9453008FE99FE00197FF
:10054000F1F700C0000021968E01C430D10519F7E3
:10055000DF91CF911F910F91FF90EF90DF90CF909F
:100560000895CF93DF93CDB7DEB7A3970FB6F89476
:10057000DEBF0FBECDBF80E060E070E040E050E045
:1005800023E00E94B20687E690E00E94F206E1ECCA
:10059000F0E08081806880830E94F301789410925B
:1005A000C4021092B30299240F2EF4EBCF2EF2E086
:1005B000DF2EF02DC60102969BA38AA30F2EF8E929
:1005C0006F2EF2E07F2EF02D0F2EFAEB4F2EF2E081
:1005D0005F2EF02D0F2EFAE52F2EF2E03F2EF02D9C
:1005E000822C39A20F2EF0EAAF2EF2E0BF2EF02DB2
:1005F000AFE9BFE01197F1F700C000008091C4029D
:10060000813109F489C0823150F48130A9F0813000
:1006100078F3823081F1833009F05EC170C083319C
:1006200009F4C6C0833108F4A8C0843109F40DC1AF
:10063000853109F051C14DC181E391E00E94140759
:10064000992039F080E490E09093FD018093FC01C3
:1006500004C01092FD011092FC0180918C029091D7
:100660008D0261E070E04AEF51E00E9453009094E7
:100670001092C402BDCF8DE391E00E94140788E779
:1006800091E00E94140700E010E0C80164E070E00F
:1006900040E050E00E94F000F201808191810097DB
:1006A00011F100D000D000D0EDB7FEB73196ADB754
:1006B000BEB712963C922E9211978CE891E09383EC
:1006C0008283C8010196958384830E94CF07ADB7CA
:1006D000BEB716960FB6F894BEBF0FBEADBF882D3D
:1006E00099A10E9414070F5F1F4F0430110569F68E
:1006F00081E991E00E9414071092C40279CF89E940
:1007000091E00E9414070E94F3011092C40288EA4B
:1007100091E00E9414076CCF8FEA91E00E941407C9
:100720008E010F5F1F4FEE24FF24C501B7010E9409
:100730002B07F801819391938F0182E090E0E80EFE
:10074000F91E90E1E916F10481F700918C021091F5
:100750008D0281EB92E060E070E00E942B07BC010B
:10076000C801AE014F5F5F4F0E9453001092C40258
:1007700088EA91E00E9414073BCF8CEB91E00E9445
:10078000140700918C0210918D0281EB92E060E0E1
:1007900070E00E942B07BC01C80141E050E00E94BC
:1007A000F0001092C40288EA91E00E94140720CF62
:1007B00088EC91E00E94140780918C0290918D0248
:1007C0006EE070E040E050E00E94F000D6018D91B4
:1007D0009C9111979A838983EAA1FBA180819181E1
:1007E0009C838B8314968D919C9115979E838D830A
:1007F00016968D919C91179798878F838E01075F2E
:100800001F4FEE24FF24C301B7010E942B07D8011C
:100810008D939D938D01E2E0F0E0EE0EFF1EF8E077
:10082000EF16F10481F780918C0290918D026EE0B9
:1008300070E0AE014F5F5F4F0E9453001092C40200
:1008400088EA91E00E941407D3CE89ED91E00E94DE
:10085000140704E912E0C80160E070E00E942B0771
:100860009A838983C80162E070E00E942B079C8311
:100870008B8380918C0290918D026EE070E040E05D
:1008800050E00E94F000FE01359622E030E0C90100
:10089000880F991F8C0D9D1DDC018D919C911197E6
:1008A000819391932F5F3F4F2830310581F78091DD
:1008B0008C0290918D026EE070E0AE014F5F5F4F51
:1008C0000E9453001092C40288EA91E00E9414072B
:1008D0008FCE1092C4028CCE1092C40289CE1F9289
:1008E0000F920FB60F9211240F931F932F933F93E4
:1008F0004F935F936F937F938F939F93AF93BF9328
:10090000EF93FF93CF93DF93CDB7DEB7E397DEBFCF
:10091000CDBF8091C60089839091C402992309F0CC
:1009200009C28F3211F41092B3029091B302923146
:1009300009F4B7C0933140F49330B1F1913109F427
:1009400084C0992371F097C1943109F40AC194319C
:1009500008F4CFC0953109F432C1963109F08BC14A
:100960005CC1893441F483E08093B30210928F021A
:1009700010928E02DFC1883551F483E08093C40267
:100980001092B30210928F0210928E02D3C18F3355
:1009900009F0D0C182E08093C4021092B302109299
:1009A0008F0210928E02C6C120918E0230918F026A
:1009B0002115310509F062C1982F9153983008F044
:1009C0005DC190E0C19790938D0280938C028091DD
:1009D0008E0290918F02019690938F0280938E02E7
:1009E000A9C1843531F481E08093C4021092B3022E
:1009F000A1C1823541F481E18093B30210928F024C
:100A000010928E0297C1863441F484E18093B30240
:100A100010928F0210928E028DC1813441F485E1D3
:100A20008093B30210928F0210928E0283C18035A0
:100A300009F080C186E18093B30210928F02109278
:100A40008E0278C11092B30275C120918E0230914E
:100A50008F02223031050CF01AC1982F90539A3032
:100A600020F09153963008F012C1E0918E02F0917F
:100A70008F02EF54FD4F808380918E0290918F0200
:100A8000019690938F0280938E0254C18C3409F0AA
:100A900006C182E18093B30210928F0210928E02FF
:100AA00049C120918E0230918F022115310509F044
:100AB000FCC0982F9153993008F0F7C0CE010196F1
:100AC0000E94A9078093B00280918E0290918F02BC
:100AD000019690938F0280938E022CC1843409F08A
:100AE000ECC083E18093B30210928F0210928E02C9
:100AF00021C14091B00220918E0230918F0250E0CE
:100B0000440F551F241735070CF0DAC0982F905367
:100B10009A3020F09153963008F0D2C0E0918E02C6
:100B2000F0918F02E056FD4F808380918E0290916C
:100B30008F02019690938F0280938E022091B002D3
:100B400080918E0290918F0230E0220F331F281780
:100B5000390709F0EFC081E18093C4021092B3021B
:100B6000E9C020918E0230918F02283031050CF0BF
:100B7000D9C0982F90539A3020F09153963008F0B6
:100B8000D1C0E0918E02F0918F02E856FD4F808334
:100B900080918E0290918F02019690938F028093A4
:100BA0008E0280918E0290918F028830910509F01B
:100BB000C1C083E18093C4021092B302BBC02091F4
:100BC0008E0230918F02243031050CF0AEC0982F88
:100BD00090539A3020F09153963008F0A6C0E091DF
:100BE0008E02F0918F02EC56FD4F808380918E0231
:100BF00090918F02019690938F0280938E02809144
:100C00008E0290918F028430910509F093C084E1A7
:100C10008093C4021092B3028DC020918E02309155
:100C20008F02243031050CF083C0982F90539A30F6
:100C300020F09153963008F07BC0E0918E02F09145
:100C40008F02E057FD4F808380918E0290918F023A
:100C5000019690938F0280938E0280918E029091E4
:100C60008F028430910509F065C085E18093C4024C
:100C70001092B3025FC01092B3025CC020918E024A
:100C800030918F022130310509F0DCCEAACE2091BF
:100C90008E0230918F022230310509F4F7CE82E1C5
:100CA0008093C4021092B30245C020918E0230910D
:100CB0008F022130310509F411CF1092B3023AC0EE
:100CC00040918E0250918F022DB73EB72850304090
:100CD0000FB6F8943EBF0FBE2DBFEDB7FEB73196ED
:100CE0008E010E5F1F4FADB7BEB712961C930E93C9
:100CF00011972AEE31E03383228355834483868320
:100D000017820E94CF072DB73EB7285F3F4F0FB61F
:100D1000F8943EBF0FBE2DBFC8010E940507109278
:100D2000B30208C01092B30205C01092B30202C011
:100D30001092B302E396DEBFCDBFDF91CF91FF915A
:100D4000EF91BF91AF919F918F917F916F915F9143
:100D50004F913F912F911F910F910F900FBE0F90C8
:100D60001F901895203F29F42398249A22982598BB
:100D700004C0239A2498259A229A4115510511F00E
:100D800050EC01C050E46295660F607E203F11F088
:100D900040E101C040E090E081FF02C038E001C0C6
:100DA00030E081709070880F991F880F991F862BF3
:100DB000922F9270892B922F9170892B852B842BE7
:100DC000832B8CBD81E022FF80E08DBD08951CBC8B
:100DD00008958EBD0DB407FEFDCF8EB508958EBD6E
:100DE0008EB508959093C5008093C40088E18093E8
:100DF000C1008EE08093C2000895E0ECF0E09081A5
:100E000095FFFDCF8093C6000895CF93DF93EC014B
:100E10008881882331F021960E94FD0689918823DC
:100E2000D9F7DF91CF910895CF93DF93EC018881BB
:100E3000882331F021960E94FD0689918823D9F7F5
:100E4000DF91CF910895E0ECF0E080818823ECF70A
:100E50008091C6000895AC01E62FF72FDC01AE0F9C
:100E6000BF1F2C91822F80538A3050F4822F90E044
:100E7000C09782959295907F9827807F982702C08F
:100E800080E090E0322F3156363058F430E027556C
:100E9000304022953295307F3227207F3227820FD3
:100EA000931FE40FF51F2181322F30533A3030F475
:100EB000422F50E040535040840F951F322F31563F
:100EC000363028F430E027553040820F931F0895C4
:100ED0000F931F93CF93DF93CDB7DEB72A970FB64B
:100EE000F894DEBF0FBECDBF8C010E940507C8017C
:100EF0000E94A90700D000D000D0EDB7FEB7319610
:100F00008E010F5F1F4FADB7BEB712961C930E93A5
:100F1000119722E532E033832283958384830E94F4
:100F2000CF078DB79EB706960FB6F8949EBF0FBE3B
:100F30008DBFC8010E94050780E090E02A960FB699
:100F4000F894DEBF0FBECDBFDF91CF911F910F91FF
:100F50000895FC0188279927E89421912032E9F32C
:100F6000293010F02E30C8F32B3241F02D3239F4F5
:100F7000689404C00E94C707820F911D21912053DD
:100F80002A30C0F31EF4909581959F4F08957AE022
:100F9000979F902D879F802D910D11240895AEE08D
:100FA000B0E0E5EDF7E00C947D0A0D891E8986E03E
:100FB0008C831A8309838FEF9FE79E838D83AE0115
:100FC000475E5F4FCE0101966F89788D0E94F107D1
:100FD000EF81F885E00FF11F10822E96E4E00C946B
:100FE000990AADE0B0E0E7EFF7E00C946F0A3C013E
:100FF0007D876C875A01FC0117821682838181FFED
:10100000C8C12E010894411C511CF3019381EC8549
:10101000FD8593FD859193FF8191FD87EC87882362
:1010200009F4B3C1853241F493FD859193FF819119
:10103000FD87EC87853229F490E0B3010E94E50931
:10104000E4CFFF24EE2410E01032B0F48B3269F0CC
:101050008C3228F4803251F0833271F40BC08D321F
:1010600039F0803349F411602CC01260146029C03B
:10107000186027C0106125C017FD2EC0282F2053EF
:101080002A3098F416FF08C08F2D880FF82EFF0C19
:10109000FF0CF80EF20E15C08E2D880FE82EEE0C08
:1010A000EE0CE80EE20E10620CC08E3221F416FD3A
:1010B0006CC1106406C08C3611F4106802C088360A
:1010C00059F4EC85FD8593FD859193FF8191FD8712
:1010D000EC87882309F0B8CF982F9554933018F0F7
:1010E0009052933038F424E030E0A20EB31E3FE378
:1010F00039830FC0833631F0833781F0833509F0AF
:101100005AC022C0F5018081898322E030E0A20E1E
:10111000B31E21E0C22ED12C420114C092E0292E30
:10112000312C2A0C3B1CF5018080918016FF03C0F6
:101130006F2D70E002C06FEF7FEFC4010E94DA09EB
:101140006C0151011F7715C082E0282E312C2A0C2A
:101150003B1CF5018080918016FF03C06F2D70E06D
:1011600002C06FEF7FEFC4010E94CF096C011068CD
:10117000510113FD1CC006C080E290E0B3010E9443
:10118000E509EA948E2D90E0C816D906A8F30FC0A1
:10119000F40117FD859117FF81914F0190E0B30194
:1011A0000E94E509E110EA940894C108D108C1142D
:1011B000D10471F7E7C0843611F0893651F5F50195
:1011C00017FF07C080819181A281B38124E030E0C4
:1011D00008C080819181AA2797FDA095BA2F22E0AF
:1011E00030E0A20EB31E012F0F76B7FF08C0B095F6
:1011F000A095909581959F4FAF4FBF4F0068BC0160
:10120000CD01A2012AE030E00E94110AD82ED418A4
:101210003FC0853721F41F7E2AE030E020C0197FCF
:101220008F36A9F0803720F4883509F0AEC00BC0A6
:10123000803721F0883709F0A8C001C0106114FF81
:1012400009C0146007C014FF08C0166006C028E07B
:1012500030E005C020E130E002C020E132E0F501DD
:1012600017FF07C0608171818281938144E050E063
:1012700006C06081718180E090E042E050E0A40E01
:10128000B51EA2010E94110AD82ED418012F0F7783
:1012900006FF09C00E7FDF1430F404FF06C002FD14
:1012A00004C00F7E02C01D2D01C01F2D802F90E0B5
:1012B00004FF0CC0FE01ED0DF11D2081203311F45F
:1012C000097E09C002FF06C01E5F05C086789070C7
:1012D000009709F01F5F802E992403FD12C000FFC4
:1012E0000DC0FD2C1E1550F4FE0CF11A1E2D06C06B
:1012F00080E290E0B3010E94E5091F5F1E15C0F374
:1013000004C01E1510F4E11A01C0EE2484FE0FC0C3
:1013100080E390E0B3010E94E50982FE1FC081FED8
:1013200003C088E590E010C088E790E00DC0C401DC
:1013300086789070009791F081FC02C080E201C035
:101340008BE207FD8DE290E0B3010E94E50906C043
:1013500080E390E0B3010E94E509FA94DF14C0F342
:10136000DA94F201ED0DF11D808190E0B3010E944D
:10137000E509DD20A9F706C080E290E0B3010E94F4
:10138000E509EA94EE20C1F740CEF301868197810A
:1013900002C08FEF9FEF2D96E2E10C948B0AFC01C7
:1013A0000590615070400110D8F7809590958E0F90
:1013B0009F1F0895FC016150704001900110D8F703
:1013C000809590958E0F9F1F08950F931F93CF9335
:1013D000DF938C01EB018B8181FF1BC082FF0DC06D
:1013E0002E813F818C819D812817390764F4E88123
:1013F000F9810193F983E88306C0E885F985802F98
:101400000995009731F48E819F8101969F838E8389
:1014100002C00FEF1FEFC801DF91CF911F910F9115
:101420000895FA01AA27283051F1203181F1E8947A
:101430006F936E7F6E5F7F4F8F4F9F4FAF4FB1E0C7
:101440003ED0B4E03CD0670F781F891F9A1FA11DC2
:10145000680F791F8A1F911DA11D6A0F711D811DC3
:10146000911DA11D20D009F468943F912AE0269F88
:1014700011243019305D3193DEF6CF010895462FE7
:101480004770405D4193B3E00FD0C9F7F6CF462FC8
:101490004F70405D4A3318F0495D31FD4052419331
:1014A00002D0A9F7EACFB4E0A695979587957795EE
:1014B0006795BA95C9F700976105710508959B0175
:1014C000AC010A2E06945795479537952795BA95FE
:1014D000C9F7620F731F841F951FA01D08952F92D7
:1014E0003F924F925F926F927F928F929F92AF92B4
:1014F000BF92CF92DF92EF92FF920F931F93CF9301
:10150000DF93CDB7DEB7CA1BDB0B0FB6F894DEBF97
:101510000FBECDBF09942A88398848885F846E84BD
:101520007D848C849B84AA84B984C884DF80EE8007
:10153000FD800C811B81AA81B981CE0FD11D0FB610
:10154000F894DEBF0FBECDBFED010895F894FFCF34
:101550003E3E41443939313020526561643A204978
:10156000443D25642C20416464723D30782530323E
:10157000582C20446174613D307800253032582069
:10158000003E54657374204D6F64650A003E41440B
:101590003939313020436F6E74726F6C6C65722014
:1015A00062792050657465722059752028706574C1
:1015B00065722E79752E6573686F7040676D61690D
:1015C0006C2E636F6D290A003E3E50726573656E26
:1015D0007420446576696365733A20004925642068
:1015E000000A3E446F6E650A003E4D617374657279
:1015F0002052657365740A003E446F6E650A003EB2
:101600005772697465204D6F64650A003E526561CA
:1016100064204D6F64650A003E4672657175656EA3
:101620006379204D6F64650A003E416D706C69748A
:10163000756465204D6F64650A0044617461496496
:101640006C653D25642C25630A000000000008003D
:1016500020001F003F00C000000001004000080003
:10166000200000000000000002000400040004004C
:101670000400040000000000040002000400040054
:10168000080008000400080008000B0B0B0B060004
:101690000500040003000A0A0A0A06000500040007
:0A16A00003006E756D3D25640A001D
:00000001FF
