S00E00004144393931302E73726563BE
S11300000C9434000C9451000C9451000C94510045
S11300100C9451000C9451000C9451000C94510018
S11300200C9451000C9451000C9451000C94510008
S11300300C9451000C9451000C9451000C945100F8
S11300400C9451000C9451000C94DE030C94510058
S11300500C9451000C9451000C9451000C945100D8
S11300600C9451000C94510011241FBECFEFD8E022
S1130070DEBFCDBF12E0A0E0B1E0E6E1F4E102C0F2
S113008005900D92A031B107D9F712E0A0E1B2E0DA
S113009001C01D92AB37B107E1F70E9489020C94AD
S11300A0090A0C9400005F926F927F928F929F9244
S11300B0AF92BF92CF92DF92EF92FF920F931F9372
S11300C0CF93DF936B014A01EC0121978FE39CE905
S11300D00197F1F700C00000ADB7BEB718970FB68F
S11300E0F894BEBF0FBEADBFEDB7FEB7319600E1C9
S11300F012E012961C930E93119780E091E0938383
S11301008283D583C483778366830E943207EDB7E5
S1130110FEB738960FB6F894FEBF0FBEEDBFC80108
S11301200E9477065F9A8FE39CE90197F1F700C07C
S113013000005F98AFE3BCE91197F1F700C000003D
S1130140FE01EE5FFD4F60807724F30120A1FE01E4
S1130150EE0FFF1FEC5FFD4F81E090E0008002C0D6
S1130160880F991F0A94E2F7582E80952823D3010B
S113017090962C93EFE3FCE93197F1F700C000006F
S11301808C2D0E944C068FE39CE90197F1F700C087
S11301900000F601EE0FFF1FEE51FE4F80819181AA
S11301A0009709F443C020E030E000E010E00F2E97
S11301B0F0E1EF2EF2E0FF2EF02D0F2EFBE2AF2E3A
S11301C0F1E0BF2EF02D6F01C901880F991FE401E2
S11301D0C80FD91F88810E944C0600D000D000D0DF
S11301E0EDB7FEB73196ADB7BEB71296FC92EE925C
S11301F01197B382A28288819981958384830E9416
S11302003207EDB7FEB736960FB6F894FEBF0FBEB1
S1130210EDBFC7010E9477060F5F1F4F9801D601FB
S11302208D919C9111970817190770F2EFE3FCE97F
S11302303197F1F700C00000D30190968C9190970C
S1130240582A90965C92EFE3FCE93197F1F700C0ED
S11302500000289A8FE39CE90197F1F700C00000A1
S11302602898AFE3BCE91197F1F700C000008AE0D9
S113027090E0909311028093100280E192E00E943A
S11302807706EFE3FCE93197F1F700C00000DF9156
S1130290CF911F910F91FF90EF90DF90CF90BF907F
S11302A0AF909F908F907F906F905F9008957F9212
S11302B08F929F92AF92BF92CF92DF92EF92FF9272
S11302C00F931F93CF93DF937B01EC0121978FE36F
S11302D09CE90197F1F700C00000ADB7BEB71897CD
S11302E00FB6F894BEBF0FBEADBFEDB7FEB73196E3
S11302F000E112E012961C930E93119781E391E0B2
S113030093838283D583C483778366830E94320771
S1130310EDB7FEB738960FB6F894FEBF0FBEEDBF2B
S1130320C8010E9477065F9A8FE39CE90197F1F771
S113033000C000005F98AFE3BCE91197F1F700C07B
S11303400000FE01EE5FFD4F80809924F40120A19E
S1130350CC0FDD1FCC5FDD4F81E090E0088002C050
S1130360880F991F0A94E2F7782E8095822380A340
S11303708FE39CE90197F1F700C000008E2D8058AF
S11303800E944C06AFE3BCE91197F1F700C00000EE
S1130390F701EE0FFF1FEE51FE4F80819181009710
S11303A009F441C0C0E0D0E00F2EFAE6CF2EF2E00F
S11303B0DF2EF02D0F2EFBE2AF2EF1E0BF2EF02D3D
S11303C07F0180E00E944C06282F30E0CE01880F88
S11303D0991F8C0D9D1DFC013183208300D000D01A
S11303E000D0EDB7FEB73196ADB7BEB712961C93E9
S11303F00E931197B382A282358324830E9432071D
S1130400EDB7FEB736960FB6F894FEBF0FBEEDBF3C
S1130410C8010E9477062196D7018D919C9111976E
S1130420C817D90770F2EFE3FCE93197F1F700C080
S11304300000D40190968C919097782A90967C92A3
S11304408AE090E0909311028093100280E192E0A0
S11304500E947706EFE3FCE93197F1F700C0000052
S1130460DF91CF911F910F91FF90EF90DF90CF908C
S1130470BF90AF909F908F907F900895CF93DF931C
S11304808FE39CE90197F1F700C00000569A5E9A49
S1130490559A5D9A209A2898579A5F9A8FE39CE917
S11304A00197F1F700C000005F988FE39CE9019782
S11304B0F1F700C00000219A8FE39CE90197F1F75E
S11304C000C0000085B115B88FE39CE90197F1F7EE
S11304D000C00000CAECD1E081E090E062E070E08E
S11304E0AE010E9453008FE39CE90197F1F700C02D
S11304F0000082E090E062E070E0AE010E945300F0
S11305008FE39CE90197F1F700C00000DF91CF91E0
S11305100895CF93DF93CDB7DEB7A0970FB6F894C5
S1130520DEBF0FBECDBF80E060E070E040E050E091
S113053023E00E94150687E690E00E945506E1EC50
S1130540F0E08081806880830E943E02789410925B
S11305507A021092690277240F2EFEE48F2EF2E0C5
S11305609F2EF02D0F2EF7E64F2EF2E05F2EF02D8A
S11305700F2EFAE42F2EF2E03F2EF02D0F2EFAE686
S1130580AF2EF2E0BF2EF02D0F2EF6E5CF2EF2E0C7
S1130590DF2EF02D8FE99FE00197F1F700C00000F6
S11305A080917A02813109F454C0823140F481305F
S11305B099F0813078F3823009F0FDC02CC083318A
S11305C009F487C0833108F470C0843109F4B4C0DD
S11305D0853109F0F0C0ECC08CE591E00E9477060B
S11305E0772039F080E490E09093C5018093C401B2
S11305F004C01092C5011092C401809142029091EE
S1130600430261E070E042EC51E00E9453007094B8
S113061010927A02BFCF88E691E00E947706AFE39A
S1130620BCE91197F1F700C00000299AEFE3FCE957
S11306303197F1F700C0000085B115B88FE39CE94C
S11306400197F1F700C000000E943E0210927A0266
S1130650A1CF87E791E00E9477068E010F5F1F4FBD
S1130660EE24FF24C601B7010E948E06D8018D93A3
S11306709D938D01E2E0F0E0EE0EFF1EF0E1EF1637
S1130680F10481F70091420210914302C20160E03B
S113069070E00E948E06BC01C801AE014F5F5F4F3F
S11306A00E94530010927A0275CF84E891E00E9470
S11306B077060091420210914302C20160E070E0AB
S11306C00E948E06BC01C8010E94570110927A0252
S11306D061CF80E991E00E94770688E090E09A83F8
S11306E0898385EB90E09C838B831E821D82188610
S11306F01F828E01075F1F4FEE24FF24C401B70140
S11307000E948E06D8018D939D938D01E2E0F0E066
S1130710EE0EFF1EF8E0EF16F10481F7809142021D
S1130720909143026EE070E0AE014F5F5F4F0E9414
S1130730530010927A022ECF81EA91E00E9477064C
S1130740C10160E070E00E948E069A838983C10132
S113075062E070E00E948E069C838B83809142024B
S1130760909143026EE070E00E945701FE013596BD
S113077022E030E0C901880F991F8A0D9B1DDC011E
S11307808D919C911197819391932F5F3F4F2830C6
S1130790310581F780914202909143026EE070E04E
S11307A0AE014F5F5F4F0E94530010927A02F2CE67
S11307B010927A02EFCE10927A02ECCE1F920F9230
S11307C00FB60F9211240F931F932F933F934F93C0
S11307D05F936F937F938F939F93AF93BF93EF93A5
S11307E0FF93CF93DF93CDB7DEB7E397DEBFCDBFE3
S11307F08091C600898390917A02992309F0FDC102
S11308008F3211F41092690290916902923109F4C5
S1130810ABC0933140F4933051F1913109F478C075
S1130820992371F08BC1943109F4FEC0943108F41A
S1130830C3C0953109F426C1963109F07FC150C176
S1130840893441F483E08093690210924502109246
S11308504402D3C1883509F0D0C182E080937A0282
S1130860109269021092450210924402C6C120916E
S11308704402309145022115310509F062C1982FD7
S11308809053983008F05DC190E0C0979093430274
S11308908093420280914402909145020196909384
S11308A0450280934402A9C1843531F481E08093E8
S11308B07A0210926902A1C1823541F481E18093E8
S11308C06902109245021092440297C1863441F4A1
S11308D084E18093690210924502109244028DC112
S11308E0813441F485E180936902109245021092AB
S11308F0440283C1803509F080C186E18093690296
S1130900109245021092440278C11092690275C196
S11309102091440230914502223031050CF01AC175
S1130920982F90539A3020F09153963008F012C1CA
S1130930E0914402F0914502E959FD4F8083809192
S1130940440290914502019690934502809344029B
S113095054C18C3409F006C182E18093690210927B
S113096045021092440249C120914402309145024B
S11309702115310509F0FCC0982F9153993008F0E6
S1130980F7C0CE0101960E940C0780936602809105
S1130990440290914502019690934502809344024B
S11309A02CC1843409F0ECC083E180936902109275
S11309B045021092440221C14091660220914402F2
S11309C03091450250E0440F551F241735070CF0B1
S11309D0DAC0982F90539A3020F09153963008F053
S11309E0D2C0E0914402F0914502EA5AFD4F80835F
S11309F08091440290914502019690934502809320
S1130A00440220916602809144029091450230E0B4
S1130A10220F331F2817390709F0EFC081E18093B3
S1130A207A0210926902E9C0209144023091450291
S1130A30283031050CF0D9C0982F90539A3020F00B
S1130A409153963008F0D1C0E0914402F0914502F0
S1130A50E25BFD4F808380914402909145020196B0
S1130A609093450280934402809144029091450200
S1130A708830910509F0C1C083E180937A02109215
S1130A806902BBC0209144023091450224303105F3
S1130A900CF0AEC0982F90539A3020F091539630BA
S1130AA008F0A6C0E0914402F0914502E65BFD4FD8
S1130AB0808380914402909145020196909345026F
S1130AC080934402809144029091450284309105C0
S1130AD009F093C084E180937A02109269028DC078
S1130AE02091440230914502243031050CF083C03A
S1130AF0982F90539A3020F09153963008F07BC091
S1130B00E0914402F0914502EA5BFD4F80838091BD
S1130B1044029091450201969093450280934402C9
S1130B2080914402909145028430910509F065C09A
S1130B3085E180937A02109269025FC01092690283
S1130B405CC020914402309145022130310509F006
S1130B50DCCEAACE209144023091450222303105E8
S1130B6009F4F7CE82E180937A021092690245C0BB
S1130B7020914402309145022130310509F411CF0E
S1130B80109269023AC040914402509145022DB737
S1130B903EB7285030400FB6F8943EBF0FBE2DBF6D
S1130BA0EDB7FEB731968E010E5F1F4FADB7BEB7DE
S1130BB012961C930E93119722EB31E03383228318
S1130BC055834483868317820E9432072DB73EB72C
S1130BD0285F3F4F0FB6F8943EBF0FBE2DBFC8012C
S1130BE00E9468061092690208C01092690205C04A
S1130BF01092690202C010926902E396DEBFCDBF73
S1130C00DF91CF91FF91EF91BF91AF919F918F9120
S1130C107F916F915F914F913F912F911F910F9110
S1130C200F900FBE0F901F901895203F29F4239822
S1130C30249A2298259804C0239A2498259A229AC3
S1130C404115510511F050EC01C050E46295660F56
S1130C50607E203F11F040E101C040E090E081FF60
S1130C6002C038E001C030E081709070880F991F95
S1130C70880F991F862B922F9270892B922F917037
S1130C80892B852B842B832B8CBD81E022FF80E074
S1130C908DBD08951CBC08958EBD0DB407FEFDCF17
S1130CA08EB508958EBD8EB508959093C50080933A
S1130CB0C40088E18093C1008EE08093C20008954F
S1130CC0E0ECF0E0908195FFFDCF8093C60008959D
S1130CD0CF93DF93EC018881882331F021960E9421
S1130CE0600689918823D9F7DF91CF910895CF9336
S1130CF0DF93EC018881882331F021960E946006FD
S1130D0089918823D9F7DF91CF910895E0ECF0E041
S1130D1080818823ECF78091C6000895AC01E62F0A
S1130D20F72FDC01AE0FBF1F2C91822F80538A3026
S1130D3050F4822F90E0C09782959295907F9827E7
S1130D40807F982702C080E090E0322F3156363001
S1130D5058F430E02755304022953295307F3227C1
S1130D60207F3227820F931FE40FF51F2181322F3A
S1130D7030533A3030F4422F50E040535040840F07
S1130D80951F322F3156363028F430E02755304045
S1130D90820F931F08950F931F93CF93DF93CDB7C3
S1130DA0DEB72A970FB6F894DEBF0FBECDBF8C0115
S1130DB00E946806C8010E940C0700D000D000D031
S1130DC0EDB7FEB731968E010F5F1F4FADB7BEB7BB
S1130DD012961C930E93119728E032E033832283FA
S1130DE0958384830E9432078DB79EB706960FB60B
S1130DF0F8949EBF0FBE8DBFC8010E94680680E0B4
S1130E0090E02A960FB6F894DEBF0FBECDBFDF91F7
S1130E10CF911F910F910895FC0188279927E89499
S1130E2021912032E9F3293010F02E30C8F32B320F
S1130E3041F02D3239F4689404C00E942A07820FCD
S1130E40911D219120532A30C0F31EF49095819571
S1130E509F4F08957AE0979F902D879F802D910D45
S1130E6011240895AEE0B0E0E8E3F7E00C94E00963
S1130E700D891E8986E08C831A8309838FEF9FE78F
S1130E809E838D83AE01475E5F4FCE0101966F89CD
S1130E90788D0E945407EF81F885E00FF11F1082CE
S1130EA02E96E4E00C94FC09ADE0B0E0EAE5F7E04E
S1130EB00C94D2093C017D876C875A01FC0117828E
S1130EC01682838181FFC8C12E010894411C511CE4
S1130ED0F3019381EC85FD8593FD859193FF8191C9
S1130EE0FD87EC87882309F4B3C1853241F493FD6F
S1130EF0859193FF8191FD87EC87853229F490E0F9
S1130F00B3010E944809E4CFFF24EE2410E010321C
S1130F10B0F48B3269F08C3228F4803251F0833291
S1130F2071F40BC08D3239F0803349F411602CC058
S1130F301260146029C0186027C0106125C017FD15
S1130F402EC0282F20532A3098F416FF08C08F2D66
S1130F50880FF82EFF0CFF0CF80EF20E15C08E2D24
S1130F60880FE82EEE0CEE0CE80EE20E10620CC0B8
S1130F708E3221F416FD6CC1106406C08C3611F457
S1130F80106802C0883659F4EC85FD8593FD85917F
S1130F9093FF8191FD87EC87882309F0B8CF982FC0
S1130FA09554933018F09052933038F424E030E0A4
S1130FB0A20EB31E3FE339830FC0833631F083376B
S1130FC081F0833509F05AC022C0F50180818983FC
S1130FD022E030E0A20EB31E21E0C22ED12C420149
S1130FE014C092E0292E312C2A0C3B1CF501808080
S1130FF0918016FF03C06F2D70E002C06FEF7FEF8A
S1131000C4010E943D096C0151011F7715C082E0A3
S1131010282E312C2A0C3B1CF5018080918016FF70
S113102003C06F2D70E002C06FEF7FEFC4010E9418
S113103032096C011068510113FD1CC006C080E226
S113104090E0B3010E944809EA948E2D90E0C816FE
S1131050D906A8F30FC0F40117FD859117FF8191FC
S11310604F0190E0B3010E944809E110EA9408940A
S1131070C108D108C114D10471F7E7C0843611F056
S1131080893651F5F50117FF07C080819181A2814E
S1131090B38124E030E008C080819181AA2797FDC4
S11310A0A095BA2F22E030E0A20EB31E012F0F76D6
S11310B0B7FF08C0B095A095909581959F4FAF4F0D
S11310C0BF4F0068BC01CD01A2012AE030E00E94BC
S11310D07409D82ED4183FC0853721F41F7E2AE026
S11310E030E020C0197F8F36A9F0803720F488358E
S11310F009F0AEC00BC0803721F0883709F0A8C0D2
S113110001C0106114FF09C0146007C014FF08C0B7
S1131110166006C028E030E005C020E130E002C0DF
S113112020E132E0F50117FF07C0608171818281FF
S1131130938144E050E006C06081718180E090E0DA
S113114042E050E0A40EB51EA2010E947409D82EFC
S1131150D418012F0F7706FF09C00E7FDF1430F477
S113116004FF06C002FD04C00F7E02C01D2D01C095
S11311701F2D802F90E004FF0CC0FE01ED0DF11D2A
S11311802081203311F4097E09C002FF06C01E5FCE
S113119005C086789070009709F01F5F802E99240F
S11311A003FD12C000FF0DC0FD2C1E1550F4FE0CF3
S11311B0F11A1E2D06C080E290E0B3010E94480996
S11311C01F5F1E15C0F304C01E1510F4E11A01C000
S11311D0EE2484FE0FC080E390E0B3010E9448092E
S11311E082FE1FC081FE03C088E590E010C088E73E
S11311F090E00DC0C40186789070009791F081FC56
S113120002C080E201C08BE207FD8DE290E0B301F1
S11312100E94480906C080E390E0B3010E94480997
S1131220FA94DF14C0F3DA94F201ED0DF11D80811C
S113123090E0B3010E944809DD20A9F706C080E2CE
S113124090E0B3010E944809EA94EE20C1F740CE31
S1131250F3018681978102C08FEF9FEF2D96E2E123
S11312600C94EE09FC010590615070400110D8F710
S1131270809590958E0F9F1F0895FC0161507040DA
S113128001900110D8F7809590958E0F9F1F0895B7
S11312900F931F93CF93DF938C01EB018B8181FF1D
S11312A01BC082FF0DC02E813F818C819D81281738
S11312B0390764F4E881F9810193F983E88306C06E
S11312C0E885F985802F0995009731F48E819F81F7
S11312D001969F838E8302C00FEF1FEFC801DF9139
S11312E0CF911F910F910895FA01AA27283051F147
S11312F0203181F1E8946F936E7F6E5F7F4F8F4F43
S11313009F4FAF4FB1E03ED0B4E03CD0670F781FA1
S1131310891F9A1FA11D680F791F8A1F911DA11D86
S11313206A0F711D811D911DA11D20D009F46894BF
S11313303F912AE0269F11243019305D3193DEF667
S1131340CF010895462F4770405D4193B3E00FD01D
S1131350C9F7F6CF462F4F70405D4A3318F0495D08
S113136031FD4052419302D0A9F7EACFB4E0A695EB
S11313709795879577956795BA95C9F7009761050D
S1131380710508959B01AC010A2E06945795479563
S113139037952795BA95C9F7620F731F841F951F58
S11313A0A01D08952F923F924F925F926F927F9269
S11313B08F929F92AF92BF92CF92DF92EF92FF9261
S11313C00F931F93CF93DF93CDB7DEB7CA1BDB0B0D
S11313D00FB6F894DEBF0FBECDBF09942A883988B2
S11313E048885F846E847D848C849B84AA84B984B9
S11313F0C884DF80EE80FD800C811B81AA81B981C5
S1131400CE0FD11D0FB6F894DEBF0FBECDBFED01D8
S10914100895F894FFCFDB
S11314163E3E4144393931302057726974653A2069
S113142649443D25642C20416464723D307825305E
S1131436325820446174613D30780025303258209A
S1131446003E3E41443939313020526561643A20C8
S113145649443D25642C20416464723D307825302E
S113146632582C20446174613D3078003E546573D3
S113147674204D6F64650A003E4D61737465722075
S113148652657365740A003E5772697465204D6F20
S113149664650A003E52656164204D6F64650A0006
S11314A63E4672657175656E6379204D6F64650A93
S11314B6003E416D706C6974756465204D6F64659A
S11314C60A004461746149646C653D25642C256396
S11314D60A0000000000080020001F003F00C000B2
S11314E60000010040000800200000000000000089
S11314F602000400040004000400040000000000CC
S113150604000200040004000800080004000800A7
S113151608000B0B060005006E756D3D25640A0078
S9030000FC
