:100000000C9434000C9451000C9451000C94510049
:100010000C9451000C9451000C9451000C9451001C
:100020000C9451000C9451000C9451000C9451000C
:100030000C9451000C9451000C9451000C945100FC
:100040000C9451000C9451000C9446010C945100F6
:100050000C9451000C9451000C9451000C945100DC
:100060000C9451000C94510011241FBECFEFD8E026
:10007000DEBFCDBF11E0A0E0B1E0E4E3F6E102C0F5
:1000800005900D92A037B107D9F711E0A0E7B1E0D4
:1000900001C01D92A13AB107E1F70E9453000C94F0
:1000A000180B0C940000CF93DF93CDB7DEB7C45587
:1000B000D0400FB6F894DEBF0FBECDBF219A8FE9B6
:1000C0009FE00197F1F700C0000085B115B88FE9F6
:1000D0009FE00197F1F700C0000080E060E070E071
:1000E00040E050E023E00E946507CE0101966EE1FA
:1000F00071E040E251E024E231E006E211E00F2E2F
:10010000FAE2EF2EF1E0FF2EF02D0F2EFCE2CF2EC3
:10011000F1E0DF2EF02D0F2EF0E3AF2EF1E0BF2E39
:10012000F02D0F2EF2E38F2EF1E09F2EF02D0E9486
:100130007C0387E690E00E94A507E1ECF0E0808177
:100140008068808378941092A00110929F01FF2410
:100150000F2EF0E8AF2EF1E0BF2EF02D0F2EF4E8B9
:100160008F2EF1E09F2EF02D0F2EFCE76F2EF1E089
:100170007F2EF02D0F2EF0E04F2EF1E05F2EF02DB0
:100180000F2EFDE92F2EF1E03F2EF02D0F2EFCE873
:10019000CF2EF1E0DF2EF02D8FE99FE00197F1F7F0
:1001A00000C000008091A0018131B1F1823140F4A2
:1001B000813079F0813080F3823009F064C017C05B
:1001C000833109F446C08331B8F1843109F05BC052
:1001D0004DC06091700170917101CE0101964F2D5B
:1001E00050E00E94E805F0941092A001D5CFC20122
:1001F0000E94C707299A8FE99FE00197F1F700C095
:10020000000085B115B88FE99FE00197F1F700C0B4
:1002100000001092A001C0CF609170017091710137
:1002200020919C01CE010196A10130E086010E943F
:100230009B061092A001B0CF609170017091710186
:10024000CE01019646E694010E94AB041092A001F3
:10025000A3CF6091700170917101CE01019641E6CA
:1002600095010E94AB041092A00196CF609170019D
:1002700070917101CE01019640E793010E94AB0499
:100280001092A00189CF1092A00186CF1F920F92E9
:100290000FB60F9211240F931F932F933F934F93F9
:1002A0005F936F937F938F939F93AF93BF93EF93DE
:1002B000FF93CF93DF93CDB7DEB7E397DEBFCDBF1C
:1002C0008091C60089839091A001992309F0FCC117
:1002D0008F3211F410929F0190919F01923109F495
:1002E000ADC0933140F4933051F1913109F47AC0AB
:1002F000992371F08DC1943109F400C1943108F44F
:10030000C5C0953109F428C1963109F081C152C1A7
:10031000893441F483E080939F011092730110921D
:100320007201D2C1883509F0CFC182E08093A0016B
:1003300010929F011092730110927201C5C1209119
:100340007201309173012115310509F064C1982FB4
:100350009053983008F05FC1CE0101960E941B08AF
:10036000909371018093700180917201909173015B
:1003700001969093730180937201A6C1843531F484
:1003800081E08093A00110929F019EC1823541F4CB
:1003900081E180939F01109273011092720194C1C8
:1003A000863441F484E180939F011092730110928E
:1003B00072018AC18D3441F485E180939F011092CE
:1003C00073011092720180C1803509F07DC186E110
:1003D00080939F01109273011092720175C1109267
:1003E0009F0172C120917201309173012230310559
:1003F0000CF01AC1982F90539A3020F091539630F8
:1004000008F012C1E0917201F0917301E356FE4FC2
:100410008083809172019091730101969093730192
:100420008093720151C18C3409F006C182E180933E
:100430009F01109273011092720146C120917201C6
:10044000309173012115310509F0F9C0982F9153AE
:10045000993008F0F4C0CE0101960E941B088093E9
:100460009C018091720190917301019690937301A8
:100470008093720129C1843409F0E9C083E180933B
:100480009F0110927301109272011EC140919C0154
:10049000209172013091730150E0440F551F2417D1
:1004A00035070CF0D7C0982F90539A3020F0915315
:1004B000963008F0CFC0E0917201F0917301E457DB
:1004C000FE4F808380917201909173010196909309
:1004D00073018093720120919C018091720190912F
:1004E000730130E0220F331F2817390709F0ECC0E1
:1004F00081E18093A00110929F01E6C020917201DA
:1005000030917301283031050CF0D6C0982F9053EC
:100510009A3020F09153963008F0CEC0E0917201ED
:10052000F0917301EC57FE4F80838091720190919E
:10053000730101969093730180937201809172010F
:10054000909173018830910509F0BEC082E18093DB
:10055000A00110929F01B8C02091720130917301E7
:10056000243031050CF0ABC0982F90539A3020F016
:100570009153963008F0A3C0E0917201F09173019D
:10058000E058FE4F80838091720190917301019633
:100590009093730180937201809172019091730125
:1005A0008430910509F090C083E18093A0011092FE
:1005B0009F018AC02091720130917301243031056E
:1005C0000CF080C0982F90539A3020F091539630C1
:1005D00008F078C0E0917201F0917301E458FE4F89
:1005E00080838091720190917301019690937301C1
:1005F0008093720180917201909173018430910512
:1006000009F062C084E18093A00110929F015CC058
:1006100010929F0159C020917201309173012130D5
:10062000310509F0DCCEAACE209172013091730120
:100630002230310509F4F7CE10929F0145C0209178
:100640007201309173012130310509F414CF1092F9
:100650009F013AC040917201509173012DB73EB78E
:10066000285030400FB6F8943EBF0FBE2DBFEDB7F7
:10067000FEB731968E010E5F1F4FADB7BEB7129613
:100680001C930E9311972EE031E033832283558320
:100690004483868317820E9441082DB73EB7285FA6
:1006A0003F4F0FB6F8943EBF0FBE2DBFC8010E944A
:1006B000B80710929F0108C010929F0105C01092C8
:1006C0009F0102C010929F01E396DEBFCDBFDF9174
:1006D000CF91FF91EF91BF91AF919F918F917F91BA
:1006E0006F915F914F913F912F911F910F910F90BB
:1006F0000FBE0F901F9018952F923F924F925F92CE
:100700006F927F928F929F92AF92BF92CF92DF9221
:10071000EF92FF920F931F93CF93DF93CDB7DEB786
:100720003C012701DC0115967C936E93149711967A
:100730005C934E9317963C932E93169713961C93A7
:100740000E931297CB01FB012081222309F45EC096
:1007500040E050E030E0FF246894F3F80F2EF5EB12
:10076000EF2EF02D01E010E0F301E30FF11DF48A0C
:10077000E48E14A214A614AA14AEDF01AC5BBF4F22
:100780001C92E45BFF4F1082DC01EC91F0E020A1B1
:10079000BA01660F771FD3018D919C91860F971F29
:1007A0001801DC010C9002C0220C331C0A94E2F701
:1007B000C101822B80A3D3011696ED91FC9117976E
:1007C000E40FF51FA081B0E090962C919097F30173
:1007D00082819381FC01E60FF71FC801008002C0EF
:1007E000880F991F0A94E2F7822B90968C933F5FB3
:1007F000432F50E0D30114968D919C911597840F4F
:10080000951FFC012081222309F0AECFD201EC918B
:10081000D3011C96EC93D6019C9111968C91D30137
:1008200018969C93189719968C93D5018C91D301A7
:100830001D968C93D4012D913C91D3011B963C9332
:100840002E931A97F0E040A121E030E0190102C098
:10085000220C331C9A95E2F7C101842B80A31D96CC
:10086000EC911D97F0E040A1C9011A960C9002C0CE
:10087000880F991F0A94E2F78095482340A3D2017C
:100880001196EC91D3015296EC93D60112969C915D
:10089000129713968C91D3011E969C931E971F96C8
:1008A0008C93D50111968C91D30153968C93D401DE
:1008B00012964D915C911397D30151965C934E9390
:1008C0005097F0E040A1190102C0220C331C9A9508
:1008D000E2F7C101842B80A35396EC915397F0E08B
:1008E00040A1C90150960C90509702C0880F991FE3
:1008F0000A94E2F7842B80A389EF90E00197F1F747
:1009000000C000005396EC915397F0E080A1509600
:100910000C90509702C0220F331F0A94E2F72095E3
:10092000282320A3E9EFF0E03197F1F700C00000A1
:10093000DF91CF911F910F91FF90EF90DF90CF90BB
:10094000BF90AF909F908F907F906F905F904F90EF
:100950003F902F900895AF92BF92CF92DF92EF9287
:10096000FF920F931F93CF93DF938C016B0179015B
:10097000463629F586E391E00E94C707C70160E08B
:1009800070E00E94DE07E801CC0DDD1D8CABC701D5
:1009900062E070E00E94DE078CAFC70164E070E0A7
:1009A0000E94DE07FE01EC5BFF4F8083C70166E01B
:1009B00070E00E94DE07C45BDF4F88832BC04136A6
:1009C000A1F485E491E00E94C707C70160E070E0F0
:1009D0000E94DE07E801CC0DDD1D8C8BC70162E0B3
:1009E00070E00E94DE078C8F15C0403799F484E5D3
:1009F00091E00E94C707C70160E070E00E94DE0737
:100A0000E801CC0DDD1D8CA3C70162E070E00E94FF
:100A1000DE078CA7D8015396EC915397F0E020A104
:100A2000EE24FF24E394C70150960C90509702C027
:100A3000880F991F0A94E2F7822B80A3E9EFF0E078
:100A40003197F1F700C000005396EC915397F0E016
:100A500020A1C70150960C90509702C0880F991F93
:100A60000A94E2F78095822380A3E9EFF0E03197C2
:100A7000F1F700C000001696ED91FC911797EC0D70
:100A8000FD1DE081F0E020A15601AA0CBB1C1296CE
:100A90008D919C9113978A0D9B1DA701DC010C90F1
:100AA00002C0440F551F0A94E2F7CA01809528231B
:100AB00020A389EF90E00197F1F700C000008EE0DD
:100AC0000E949C07A9EFB0E01197F1F700C0000069
:100AD000E801CC0DDD1D8C890E949C078C8D0E9445
:100AE0009C078CA10E949C078CA50E949C078CA946
:100AF0000E949C078CAD0E949C07FE01EC5BFF4F9F
:100B000080810E949C07C45BDF4F88810E949C0704
:100B1000E9EFF0E03197F1F700C00000D801169638
:100B20008D919C9117978C0D9D1DDC01EC91F0E04F
:100B300020A1D80112968D919C911397DC01AA0DEA
:100B4000BB1DC7010C9002C0880F991F0A94E2F7E1
:100B5000822B80A3E9EFF0E03197F1F700C00000AD
:100B6000D8011D96EC911D97F0E020A1C7011A96BF
:100B70000C901A9702C0880F991F0A94E2F7822BF3
:100B800080A3E9EFF0E03197F1F700C000001D9677
:100B9000EC911D97F0E080A11A960C901A9702C074
:100BA000EE0CFF1C0A94E2F7E094E822E0A2E9EFE1
:100BB000F0E03197F1F700C00000DF91CF911F9175
:100BC0000F91FF90EF90DF90CF90BF90AF9008957E
:100BD000EF92FF920F931F93CF93DF93EC01062FB9
:100BE000172FEE81FF81E00FF11FA081B0E09096FA
:100BF0002C9190977801EE0CFF1C8A819B81FC015F
:100C0000EE0DFF1D81E090E0008002C0880F991F6B
:100C10000A94E2F78095282390962C93909789EF79
:100C200090E00197F1F700C0000014161506E4F4F7
:100C300081E00E949C07E9EFF0E03197F1F700C0F6
:100C4000000080E00E949C0780E40E949C0788E0EE
:100C50000E949C0780E20E949C0789EF90E0019728
:100C6000F1F700C000001BC081E00E949C07E9EF83
:100C7000F0E03197F1F700C0000080E00E949C078F
:100C800080E00E949C0788E00E949C0780E20E940E
:100C90009C0789EF90E00197F1F700C000008E817A
:100CA0009F81800F911FFC01A081B0E090964C9134
:100CB0009097EA81FB81EE0DFF1D21E030E0C90134
:100CC000008002C0880F991F0A94E2F7842B909647
:100CD0008C93909789EF90E00197F1F700C00000A6
:100CE000ED85F0E040A1C9010A8402C0880F991F78
:100CF0000A94E2F7842B80A3E9EFF0E03197F1F753
:100D000000C00000ED85F0E080A10A8402C0220F3F
:100D1000331F0A94E2F72095282320A389EF90E05F
:100D20000197F1F700C00000DF91CF911F910F9163
:100D3000FF90EF9008954F925F926F927F928F9203
:100D40009F92AF92BF92CF92DF92EF92FF920F935A
:100D50001F93CF93DF936C01C62FD72F2A01390140
:100D600078018FE591E00E94C707AC2EBD2ED60119
:100D700016968D919C9117978A0D9B1DEC01A88169
:100D8000B0E090962C9190974501880C991CF60143
:100D900082819381FC01E80DF91D81E090E00080E3
:100DA00002C0880F991F0A94E2F780952823909635
:100DB0002C9389EF90E00197F1F700C00000C20189
:100DC00060E070E00E94DE070E949C07A9EFB0E09F
:100DD0001197F1F700C000001614170484F4E30122
:100DE000CC0FDD1F00E010E0C701B8010E94DE0754
:100DF0000E949C070E5F1F4F0C171D07A9F7C9EF34
:100E0000D0E02197F1F700C00000F60186819781BC
:100E10008A0D9B1DEC01A881B0E090964C919097B3
:100E20000280F381E02DE80DF91D21E030E0C901D9
:100E3000008002C0880F991F0A94E2F7842B9096D5
:100E40008C93E9EFF0E03197F1F700C00000D60194
:100E50001D96EC911D97F0E040A1C9011A960C90E7
:100E60001A9702C0880F991F0A94E2F7842B80A377
:100E7000C9EFD0E02197F1F700C000001D96EC917A
:100E80001D97F0E080A11A960C901A9702C0220FCD
:100E9000331F0A94E2F72095282320A3C9EFD0E05E
:100EA0002197F1F700C00000DF91CF911F910F91C2
:100EB000FF90EF90DF90CF90BF90AF909F908F907A
:100EC0007F906F905F904F900895203F29F4239872
:100ED000249A2298259804C0239A2498259A229A25
:100EE0004115510511F050EC01C050E46295660FB8
:100EF000607E203F11F040E101C040E090E081FFC2
:100F000002C038E001C030E081709070880F991FF6
:100F1000880F991F862B922F9270892B922F917098
:100F2000892B852B842B832B8CBD81E022FF80E0D5
:100F30008DBD08951CBC08958EBD0DB407FEFDCF78
:100F40008EB508958EBD8EB508959093C50080939B
:100F5000C40088E18093C1008EE08093C2000895B0
:100F6000E0ECF0E0908195FFFDCF8093C6000895FE
:100F7000CF93DF93EC018881882331F021960E9482
:100F8000B00789918823D9F7DF91CF910895CF9346
:100F9000DF93EC018881882331F021960E94B0070D
:100FA00089918823D9F7DF91CF910895E0ECF0E0A3
:100FB00080818823ECF78091C6000895AC01E62F6C
:100FC000F72FDC01AE0FBF1F2C91822F80538A3088
:100FD00050F4822F90E0C09782959295907F982749
:100FE000807F982702C080E090E0322F3156363063
:100FF00058F430E02755304022953295307F322723
:10100000207F3227820F931FE40FF51F2181322F9B
:1010100030533A3030F4422F50E040535040840F68
:10102000951F322F3156363028F430E027553040A6
:10103000820F931F0895FC0188279927E894219136
:101040002032E9F3293010F02E30C8F32B3241F072
:101050002D3239F4689404C00E943908820F911D22
:10106000219120532A30C0F31EF4909581959F4F13
:1010700008957AE0979F902D879F802D910D1124E0
:101080000895AEE0B0E0E7E4F8E00C94EF0A0D89D3
:101090001E8986E08C831A8309838FEF9FE79E83E6
:1010A0008D83AE01475E5F4FCE0101966F89788DCB
:1010B0000E946308EF81F885E00FF11F10822E96E1
:1010C000E4E00C940B0BADE0B0E0E9E6F8E00C9442
:1010D000E10A3C017D876C875A01FC011782168268
:1010E000838181FFC8C12E010894411C511CF3016A
:1010F0009381EC85FD8593FD859193FF8191FD871B
:10110000EC87882309F4B3C1853241F493FD8591BE
:1011100093FF8191FD87EC87853229F490E0B3013C
:101120000E94570AE4CFFF24EE2410E01032B0F4FE
:101130008B3269F08C3228F4803251F0833271F4B2
:101140000BC08D3239F0803349F411602CC012602D
:10115000146029C0186027C0106125C017FD2EC07B
:10116000282F20532A3098F416FF08C08F2D880F9F
:10117000F82EFF0CFF0CF80EF20E15C08E2D880F06
:10118000E82EEE0CEE0CE80EE20E10620CC08E3271
:1011900021F416FD6CC1106406C08C3611F4106881
:1011A00002C0883659F4EC85FD8593FD859193FF47
:1011B0008191FD87EC87882309F0B8CF982F95544B
:1011C000933018F09052933038F424E030E0A20EBF
:1011D000B31E3FE339830FC0833631F0833781F08C
:1011E000833509F05AC022C0F5018081898322E04D
:1011F00030E0A20EB31E21E0C22ED12C420114C059
:1012000092E0292E312C2A0C3B1CF5018080918024
:1012100016FF03C06F2D70E002C06FEF7FEFC401B7
:101220000E944C0A6C0151011F7715C082E0282EE4
:10123000312C2A0C3B1CF5018080918016FF03C0E5
:101240006F2D70E002C06FEF7FEFC4010E94410A72
:101250006C011068510113FD1CC006C080E290E0D3
:10126000B3010E94570AEA948E2D90E0C816D90661
:10127000A8F30FC0F40117FD859117FF81914F016D
:1012800090E0B3010E94570AE110EA940894C10863
:10129000D108C114D10471F7E7C0843611F0893642
:1012A00051F5F50117FF07C080819181A281B381BB
:1012B00024E030E008C080819181AA2797FDA095A5
:1012C000BA2F22E030E0A20EB31E012F0F76B7FF37
:1012D00008C0B095A095909581959F4FAF4FBF4F97
:1012E0000068BC01CD01A2012AE030E00E94830A1F
:1012F000D82ED4183FC0853721F41F7E2AE030E075
:1013000020C0197F8F36A9F0803720F4883509F086
:10131000AEC00BC0803721F0883709F0A8C001C0EB
:10132000106114FF09C0146007C014FF08C01660E4
:1013300006C028E030E005C020E130E002C020E136
:1013400032E0F50117FF07C06081718182819381CE
:1013500044E050E006C06081718180E090E042E0AE
:1013600050E0A40EB51EA2010E94830AD82ED41804
:10137000012F0F7706FF09C00E7FDF1430F404FF42
:1013800006C002FD04C00F7E02C01D2D01C01F2D2E
:10139000802F90E004FF0CC0FE01ED0DF11D2081B7
:1013A000203311F4097E09C002FF06C01E5F05C08C
:1013B00086789070009709F01F5F802E992403FDB6
:1013C00012C000FF0DC0FD2C1E1550F4FE0CF11ACA
:1013D0001E2D06C080E290E0B3010E94570A1F5FF5
:1013E0001E15C0F304C01E1510F4E11A01C0EE244E
:1013F00084FE0FC080E390E0B3010E94570A82FE92
:101400001FC081FE03C088E590E010C088E790E02F
:101410000DC0C40186789070009791F081FC02C0E5
:1014200080E201C08BE207FD8DE290E0B3010E94F3
:10143000570A06C080E390E0B3010E94570AFA946D
:10144000DF14C0F3DA94F201ED0DF11D808190E01C
:10145000B3010E94570ADD20A9F706C080E290E0A0
:10146000B3010E94570AEA94EE20C1F740CEF3017F
:101470008681978102C08FEF9FEF2D96E2E10C9459
:10148000FD0AFC010590615070400110D8F780956D
:1014900090958E0F9F1F0895FC0161507040019040
:1014A0000110D8F7809590958E0F9F1F08950F9388
:1014B0001F93CF93DF938C01EB018B8181FF1BC0C6
:1014C00082FF0DC02E813F818C819D8128173907B5
:1014D00064F4E881F9810193F983E88306C0E88523
:1014E000F985802F0995009731F48E819F810196AF
:1014F0009F838E8302C00FEF1FEFC801DF91CF9152
:101500001F910F910895FA01AA27283051F1203137
:1015100081F1E8946F936E7F6E5F7F4F8F4F9F4F87
:10152000AF4FB1E03ED0B4E03CD0670F781F891FC9
:101530009A1FA11D680F791F8A1F911DA11D6A0F97
:10154000711D811D911DA11D20D009F468943F914A
:101550002AE0269F11243019305D3193DEF6CF0149
:101560000895462F4770405D4193B3E00FD0C9F70F
:10157000F6CF462F4F70405D4A3318F0495D31FD7C
:101580004052419302D0A9F7EACFB4E0A6959795CF
:10159000879577956795BA95C9F7009761057105A5
:1015A00008959B01AC010A2E0694579547953795EF
:1015B0002795BA95C9F7620F731F841F951FA01D49
:1015C00008952F923F924F925F926F927F928F92E7
:1015D0009F92AF92BF92CF92DF92EF92FF920F93C2
:1015E0001F93CF93DF93CDB7DEB7CA1BDB0B0FB6CC
:1015F000F894DEBF0FBECDBF09942A883988488889
:101600005F846E847D848C849B84AA84B984C8841E
:10161000DF80EE80FD800C811B81AA81B981CE0F15
:10162000D11D0FB6F894DEBF0FBECDBFED010895FA
:04163000F894FFCF5C
:101634004D61737465722052657365740A00446168
:10164400746149646C653D25642C25630A000A0AAB
:10165400060005000B0B06000500040A0000070045
:10166400050B000007004672657175656E6379208D
:101674005365740A00416D706C6974756465205318
:1016840065740A005068617365205365740A0052DA
:10169400656769737465722057726974650A00001E
:00000001FF
